{"abi":[{"type":"receive","stateMutability":"payable"},{"type":"function","name":"transferExactEthWithReferenceAndFee","inputs":[{"name":"_to","type":"address","internalType":"address payable"},{"name":"_amount","type":"uint256","internalType":"uint256"},{"name":"_paymentReference","type":"bytes","internalType":"bytes"},{"name":"_feeAmount","type":"uint256","internalType":"uint256"},{"name":"_feeAddress","type":"address","internalType":"address payable"}],"outputs":[],"stateMutability":"payable"},{"type":"function","name":"transferWithReferenceAndFee","inputs":[{"name":"_to","type":"address","internalType":"address payable"},{"name":"_paymentReference","type":"bytes","internalType":"bytes"},{"name":"_feeAmount","type":"uint256","internalType":"uint256"},{"name":"_feeAddress","type":"address","internalType":"address payable"}],"outputs":[],"stateMutability":"payable"},{"type":"event","name":"TransferWithReferenceAndFee","inputs":[{"name":"to","type":"address","indexed":false,"internalType":"address"},{"name":"amount","type":"uint256","indexed":false,"internalType":"uint256"},{"name":"paymentReference","type":"bytes","indexed":true,"internalType":"bytes"},{"name":"feeAmount","type":"uint256","indexed":false,"internalType":"uint256"},{"name":"feeAddress","type":"address","indexed":false,"internalType":"address"}],"anonymous":false}],"bytecode":{"object":"0x608060405234801561001057600080fd5b5060016000556104ed806100256000396000f3fe60806040526004361061002d5760003560e01c8063b868980b1461007a578063d7c95e981461008f57600080fd5b366100755760405162461bcd60e51b81526020600482015260136024820152726e6f742070617961626c65207265636569766560681b60448201526064015b60405180910390fd5b600080fd5b61008d61008836600461039c565b6100a2565b005b61008d61009d36600461040a565b6100c0565b6100b9856100b08434610480565b868686866100c0565b5050505050565b6100c86102de565b6000866001600160a01b03168660405160006040518083038185875af1925050503d8060008114610115576040519150601f19603f3d011682016040523d82523d6000602084013e61011a565b606091505b505090508061016b5760405162461bcd60e51b815260206004820152601b60248201527f436f756c64206e6f74207061792074686520726563697069656e740000000000604482015260640161006c565b6040516001600160a01b0383169084156108fc029085906000818181858888f193505050501580156101a1573d6000803e3d6000fd5b50600033846101b08934610480565b6101ba9190610480565b604051600081818185875af1925050503d80600081146101f6576040519150601f19603f3d011682016040523d82523d6000602084013e6101fb565b606091505b50509050806102605760405162461bcd60e51b815260206004820152602b60248201527f436f756c64206e6f742073656e642072656d61696e696e672066756e6473207460448201526a37903a3432903830bcb2b960a91b606482015260840161006c565b85856040516102709291906104a7565b604080519182900382206001600160a01b03808c168452602084018b90529183018790529085166060830152907fa1c241e337c4610a9d0f881111e977e9dc8690c85fe2108897bb1483c66e6a969060800160405180910390a250506102d66001600055565b505050505050565b6002600054036103305760405162461bcd60e51b815260206004820152601f60248201527f5265656e7472616e637947756172643a207265656e7472616e742063616c6c00604482015260640161006c565b6002600055565b80356001600160a01b038116811461034e57600080fd5b919050565b60008083601f84011261036557600080fd5b50813567ffffffffffffffff81111561037d57600080fd5b60208301915083602082850101111561039557600080fd5b9250929050565b6000806000806000608086880312156103b457600080fd5b6103bd86610337565b9450602086013567ffffffffffffffff8111156103d957600080fd5b6103e588828901610353565b909550935050604086013591506103fe60608701610337565b90509295509295909350565b60008060008060008060a0878903121561042357600080fd5b61042c87610337565b955060208701359450604087013567ffffffffffffffff81111561044f57600080fd5b61045b89828a01610353565b9095509350506060870135915061047460808801610337565b90509295509295509295565b818103818111156104a157634e487b7160e01b600052601160045260246000fd5b92915050565b818382376000910190815291905056fea2646970667358221220a09cfd98920b254b073b12c484fc8f4887691d15c959cf37b3a95901d38ad43164736f6c63430008170033","linkReferences":{}},"methodIdentifiers":{"transferExactEthWithReferenceAndFee(address,uint256,bytes,uint256,address)":"d7c95e98","transferWithReferenceAndFee(address,bytes,uint256,address)":"b868980b"},"id":21}